:020000040000FA
:020000002E2CA4
:040002000034003492
:080008008A0148285000650040
:1000100074006500720020005300680061006200F7
:1000200069006E006F002000300031004100750053
:10003000670031003800200063006F006400650035
:10004000200066006F00720020004D00720020004A
:10005000530074006100730068002000320030001B
:10006000310038002000560035002000770077006E
:1000700077002E007700690072006500320077007B
:100080006900720065002E006F0072006700210099
:100090000E3088000D1CD4280D1001308800200877
:1000A000023A031D5B281C08A4008801921001304D
:1000B0008800A00AD4282008053A031D67281C08D8
:1000C000A3008801921201308800A00AD4282008D9
:1000D000083A031D73281C08A2008801141201307D
:1000E0008800A00AD42820081C08A1008801131049
:1000F00001308800A0012108031974142109031993
:1001000074142508503E031888282102031874141B
:100110002108503E03188F28250203187414210863
:10012000A50022080319F41422090319F41426085F
:10013000503E03189E2822020318F4142208503E51
:100140000318A52826020318F4142208A600230881
:10015000031974152309031974152708503E031851
:10016000B4282302031874152308503E0318BB2833
:100170002702031874152308A70024080319F4158F
:1001800024090319F4152808503E0318CA2824022C
:100190000318F4152408503E0318D1282802031828
:1001A000F4152408A80074160E3088008C1E062B47
:1001B0008C128801F2080319DF28F203E428F308FF
:1001C0000319E428F203F303B9080319E928B90372
:1001D000EE28BA080319EE28B903BA03C5080319B3
:1001E000F328C503F828C6080319F828C503C60371
:1001F000013088009D184A292008031D072988011D
:10020000921401308800F9309D00A00A4A29200884
:10021000013A031D0F2907309D00A00A4A29200832
:10022000033A031D1B298801921601308800F9301A
:100230009D00A00A4A292008043A031D23291730EB
:100240009D00A00A4A292008063A031D2F2988018B
:10025000141601308800F9309D00A00A4A292008B0
:10026000073A031D372953309D00A00A4A29200868
:10027000093A031D43298801131401308800F9301D
:100280009D00A00A4A2920080A3A031D4A29233062
:100290009D00A00A8801B60803195529B60B5529F7
:1002A000AA1B55292A1F55299316C10803195F292E
:1002B000C10B5F29AA1E5F292A1A5F291315C208DC
:1002C00003196929C20B6929AA1F69292A1B6929EF
:1002D0009316A501A60120080339033A031D7229CC
:1002E000A6168129A01C7A292408033A031981291A
:1002F000A6168129201C81292408013A031D812981
:10030000A61620080C390C3A031D882926179729B0
:10031000A01D90292408033A031997292617972925
:10032000201D97292408013A031D97292617200824
:100330003039303A031D9E29A617AD29A01EA629E3
:100340002408033A0319AD29A617AD29201EAD29AB
:100350002408013A031DAD29A61721080339033AE1
:10036000031DB429A614C329A11CBC292408033ADF
:100370000319C329A614C329211CC3292408013A3F
:10038000031DC329A61421080C390C3A031DCA29E0
:100390002615D929A11DD2292408033A0319D929E0
:1003A0002615D929211DD9292408013A031DD92947
:1003B000261521083039303A031DE029A615EF290A
:1003C000A11EE8292408033A0319EF29A615EF29ED
:1003D000211EEF292408013A031DEF29A615220842
:1003E0000339033A031DF629A517052AA21CFE2985
:1003F0002408033A0319052AA517052A221C052AF1
:100400002408013A031D052AA51722080C390C3AC5
:10041000031D0C2A25171B2AA21D142A2408033A9F
:1004200003191B2A25171B2A221D1B2A2408013AFF
:10043000031D1B2A251722083039303A031D222AB2
:100440002614312AA21E2A2A2408033A0319312A23
:100450002614312A221E312A2408013A031D312A8A
:10046000261423080339033A031D382A2515472A81
:10047000A31C402A2408033A0319472A2515472AB2
:10048000231C472A2408013A031D472A251523085F
:100490000C390C3A031D4E2AA5155D2AA31D562AB8
:1004A0002408033A03195D2AA5155D2A231D5D2A38
:1004B0002408013A031D5D2AA51523083039303A76
:1004C000031D642A2516732AA31E6C2A2408033AE6
:1004D0000319732A2516732A231E732A2408013A46
:1004E000031D732A2516A70A2008C03903198A2A72
:1004F000201F812AA01B862A271A8A2A1F30A605B8
:100500008A2AA71A8A2A1F30A6058A2A271B8A2A1E
:100510001F30A6052108C0390319A02A211F972AD8
:10052000A11B9C2A271AA02AF130A605A02AA71AE7
:10053000A02AF130A605A02A271BA02AF130A60583
:100540002208C0390319B92A221FAE2AA21BB42AD5
:10055000271AB92A26103F30A505B92AA71AB92AA1
:1005600026103F30A505B92A271BB92A26103F308F
:10057000A5052308C0390319CF2A231FC62AA31BA8
:10058000CB2A271ACF2AE330A505CF2AA71ACF2ACC
:10059000E330A505CF2A271BCF2AE330A505DC30A1
:1005A000980425191811A5199811251A1812251B38
:1005B0001813A51B9813EF309A0426181A10A618C2
:1005C0009A1026191A11A6199A11A61A9A12261B00
:1005D0001A13A61B9A13A40BEF2A0330A400A80B2E
:1005E000062B29080319F62AA903062B2A19022B20
:1005F0002A18022B2A14AC01AD01AA140E3088006F
:1006000019178801F630A8000430A9000E308800C0
:10061000191F6D2B0F1F6D2B0F138801AA1C1D2B8B
:10062000A030AE002C08AE072B08AE072D08AE0791
:10063000AE09AE0A0730AF00AA10AF0B262B0E3062
:10064000880019130F1388012A106D2B2F08063A02
:10065000031D302B143088004D309A0088016D2B1B
:100660002F08053A031D3A2B1430880053309A00A6
:1006700088016D2B2F08043A031D472B87012C306E
:1006800086001430880001089A0088016D2B2F081D
:10069000033A031D542B87012B3086001430880049
:1006A00001089A0088016D2B2F08023A031D612B67
:1006B00087012D3086001430880001089A008801D7
:1006C0006D2B2F08013A031D1F2B87012E3086004A
:1006D0001430880001089A0088010E3088008F1FAE
:1006E0002D2C8F13143088001D1D782B1908262CF3
:1006F0009D1C7D2B1D121D16262C88010A3087009B
:10070000193086003008063A031D8C2B01084D3A3B
:10071000031D262CB0032D2C3008053A031D962B03
:100720000108533A031D262CB0032D2C85013030CF
:1007300084003008840701088000B00B2D2CA03005
:10074000B5003408B5073308B5073208B5073108D6
:10075000B507031D262C33082B060319262C340855
:10076000031DBF2BAA19262C06308800FF309900E4
:100770008801AA132A171230B6009312262C3408C7
:10078000013A031DDC2B321CCF2B06308800FF30D2
:1007900095008801AA162A121230C1001311B21C4A
:1007A000262C06308800FF3099008801AA172A13EA
:1007B0001230C2009312262C3408023A031DE32B98
:1007C0003208ED00262C3408033A031DEA2B3208C8
:1007D000EE00262C3408043A031DF22B32080F39A0
:1007E000EF00262C3408053A031DF92B3208EC00E3
:1007F000262C3408063A031D002C3208EB00262C68
:100800003408073A031D072C3208EA00262C340866
:10081000083A031D0E2C3208E900262C3408093A48
:10082000031D172C3208E8000130C400262C3408C0
:100830000A3A031D1E2C3208E500262C34080B3A18
:10084000031D262C32080F39E600262CB301B20115
:10085000B401B101B10A0630B000090088018B0172
:10086000DC3098009901EF309A0022309200BF30BE
:10087000930010309400FF309600F301F201A001C4
:10088000A101A201A3010330A400F630A8000430A6
:10089000A900AA010530B000B701BC01B801C4012C
:1008A000BB01C7018501653084009F30870080301F
:1008B00086000109031D742C840A860A0408703A14
:1008C000031D592CE8010130E700ED012030EE0056
:1008D000E500EF01E6014330EC008C30EB00013025
:1008E000EA000330E900832C8501653084009F30E5
:1008F00087008030860001088000840A860A040888
:10090000703A031D7B2C6E08B9006F08BA006508A9
:10091000C5006608C6001230880082308C000C1FAB
:100920008F2C0130880033309E009F01A001F930E8
:100930009D0002308800FF30A000A100A200A300AB
:10094000053088008C01D3308D00013090008F017C
:10095000910180308E0006308800FF309500C03055
:10096000940080309600FF309900C03098008030AD
:100970009A0035309D00C0309C0080309E000B30C6
:100980008800AC309D009C0190309F0080309E001C
:100990000E308800203096008C01013097008D01C8
:1009A000803099008F011030880080309B009A01C0
:1009B00041309E001C088801AB00143088002030B4
:1009C0009E009F01A6309B009C0190309D003C3012
:1009D00088001330920021309300133094001330BC
:1009E00095000230960008309700003098000030E3
:1009F00099000E309100823090003D3088005530D3
:100A00008F00AA308F000F100930CD000B30C500C9
:100A10000C30C6000F30CB003E3088002230B800CA
:100A20000130C3001030CE00013090000B309A002E
:100A300015309B0016309C000C309D000F309E003E
:100A40003D30880055308F00AA308F000F14880188
:100A5000C0308B003330A0000030A1000030A20075
:100A60000030A300F3015A30F200982518308A00B4
:100A7000073099208A01F3011230F20098251830CE
:100A80008A00003099208A01A001A101A201A301DE
:100A90000330A0002D30F20098250C30A0002D303E
:100AA000F20098253030A0002D30F2009825A001EA
:100AB0000330A1002D30F20098250C30A1002D301C
:100AC000F20098253030A1002D30F2009825A101C8
:100AD0000330A2002D30F20098250C30A2002D30FA
:100AE000F20098253030A2002D30F2009825A201A6
:100AF0000330A3002D30F20098250C30A3002D30D8
:100B0000F20098253030A3002D30F2009825A30183
:100B100018308A000730B0208A01F3011230F20049
:100B2000982518308A000030B02008308A0000284C
:0E0B3000F308031D982DF208031D982D0800F0
:10100000741A052810308A000028380803190D28A2
:10101000B8037419EA2CB71FEA2C3708FC39031DF2
:1010200018283C08133A031D1828C301AA194314B1
:1010300087013708FC39031D20283C3086007A28B8
:101040003C08013A031D27286E3086007A283C08A8
:10105000023A031D2C2830283C08033A031D33288C
:10106000693086007A283C08043A031D3A28683023
:1010700086007A283C08053A031D4128673086001F
:101080007A283C08063A031D4828653086007A28ED
:101090003C08093A031975283C080A3A03197528CF
:1010A0003C080B3A031975283C080C3A03197528BB
:1010B0003C080D3A031975283C080E3A03197528A7
:1010C0003C080F3A031975283C08103A0319752893
:1010D0003C08113A031975283C08123A031975287F
:1010E0003C08133A031975287828433086007A287B
:1010F0006D3086003708031D83287408143A031DD9
:10110000EA2CB70ABA293708FC3903199F283C088A
:10111000013A0319EE293C08023A0319F42A3C0863
:10112000033A0319AF2B3C08063A0319EE293C0891
:10113000073A0319BE2C3C08083A0319C12C74085D
:10114000143A031D49293708FC39031DC6283C08F9
:10115000013A031DAE280430B700BA293C08023A10
:10116000031DB5280430B700BA293C08033A031D13
:10117000BC280430B700622C3C08063A031DC32883
:101180000430B700BA290530B700BA293C08043A40
:10119000031DD0286708C4000319C40AB701EA2C4C
:1011A0003C08093A031DDA282A18D4282A140230E8
:1011B000AC0040293C080A3A031DE4282A18DE281E
:1011C0002A140330AC0040293C080B3A031DEE28DA
:1011D0002A18E8282A140430AC0040293C080C3AAC
:1011E000031DF8282A18F2282A140530AC004029DB
:1011F0003C080D3A031D02292A18FC282A1406303F
:10120000AC0040293C080E3A031D0C292A18062977
:101210002A140730AC0040293C080F3A031D162958
:101220002A1810292A140830AC0040293C08103A2A
:10123000031D20292A181A292A140930AC00402934
:101240003C08113A031D2A292A1824292A140A3095
:10125000AC0040293C08123A031D34292A182E29D3
:101260002A140B30AC0040293C08133A031D3E29D8
:10127000431CAA114318AA15B701EA2CB701EA2C9E
:101280004308AD00AA140E30880019178801B70171
:10129000EA2C7408123A031D5729B70A3708033994
:1012A000031DBA293703FC39013EB700BA29740877
:1012B000183A031D8A2937080339013A031D6A29A0
:1012C00001080739073A031D6829F8308105BA2952
:1012D000810ABA2937080339023A031D7A2901081D
:1012E0003839383A031D7729C7308105BA290830C3
:1012F0008107BA2937080339033A031DBA290108BF
:10130000C039C03A031D87293F308105BA294030D2
:101310008107BA297408113A031DBA29370803391D
:10132000013A031D9C2901080739031D9A2907303A
:101330008104BA298103BA2937080339023A031D07
:10134000AB2901083839031DA82938308104BA298E
:1013500008308102BA2937080339033A031DBA2934
:101360000108C039031DB729C0308104BA294030B3
:101370008102BA29A301011CBF292314A314811CD3
:10138000C3292315A315011DC7292316A316A201DE
:10139000811DCC292214A214011ED0292215A215C8
:1013A000811ED4292216A216A101011FD9292114B8
:1013B000A114811FDD292115A115A00137080339CA
:1013C000013A0319A31737080339023A0319A21780
:1013D00037080339033A0319A117EA2C7408143AA1
:1013E000031DF429B701EA2C7408123A031D012ADF
:1013F000B70A37080339031DAB2A3703FC39B70096
:10140000AB2A7408183A031D582A37080339031DFC
:10141000132A01080739073A031D112AF8308105FC
:10142000AB2A810AAB2A37080339013A031D232A64
:1014300001083839383A031D202AC7308105AB2A04
:1014400008308107AB2A37080339023A031D452AC1
:101450000108BF000310BF0C860A0118BF173F0820
:10146000E039E03A031D392A011086030113811384
:10147000AB2A2030BF070110BF1B011486033F3089
:1014800081053F0DC0398104AB2A37080339033A7F
:10149000031DAB2A860A01080E390E3A031D542A91
:1014A000F13081058603AB2A023081078603AB2A1F
:1014B0007408113A031DAB2A37080339031D692A42
:1014C00001080739031D672A07308104AB2A81030D
:1014D000AB2A37080339013A031D782A0108383945
:1014E000031D752A38308104AB2A08308102AB2AEB
:1014F00037080339023A031D992A0108BF00031077
:10150000BF0C860A0118BF173F08E039031D8D2A5A
:101510000114860301178117AB2A2030BF02011086
:10152000BF1B011486033F3081053F0DC039810484
:10153000AB2A37080339033A031DAB2A860A010890
:101540000E39031DA72A0E3081048603AB2A023010
:1015500081028603AB2AA301011CB02A2314A31421
:10156000811CB42A2315A315011DB82A2316A3161E
:10157000A201811DBD2A2214A214011EC12A221516
:10158000A215811EC52A2216A216A101011FCA2A70
:101590002114A114811FCE2A2115A115860A011C30
:1015A000D32A2116A116A001811CD82A2014A01428
:1015B000011DDC2A2015A015811DE02A2016A01689
:1015C000370803390319A31737080339013A0319F8
:1015D000A21737080339023A0319A117370803394C
:1015E000033A0319A017EA2C7408143A031DFA2AC7
:1015F000B701EA2C7408123A031D072BB70A370803
:101600000339031D9F2B3703FC39B7009F2B740848
:10161000183A031D552B37080339031D192B0108F0
:101620003F393F3A031D172BC03081059F2B810A9C
:101630009F2B37080339013A031D2B2B860A01081B
:101640003F393F3A031D282BC030810586039F2B6D
:10165000810A86039F2B37080339023A031D402B6A
:10166000860A860A01083F393F3A031D3C2BC030E9
:101670008105860386039F2B810A860386039F2BA1
:1016800037080339033A031D9F2B033086070108EF
:101690003F393F3A031D512BC0308105033086028C
:1016A0009F2B810A033086029F2B7408113A031D79
:1016B0009F2B37080339031D662B01083F39031D93
:1016C000642B3F3081049F2B81039F2B3708033904
:1016D000013A031D772B860A01083F39031D742B3D
:1016E0003F30810486039F2B810386039F2B37089D
:1016F0000339023A031D8B2B860A860A01083F39FB
:10170000031D872B3F308104860386039F2B8103B3
:10171000860386039F2B37080339033A031D9F2B4B
:101720000330860701083F39031D9B2B3F3081049E
:10173000033086029F2B8103033086029F2B010812
:101740003F39A300860A01083F39A200860A010832
:101750003F39A100860A01083F39A000E02A740839
:10176000143A031DB52BB701EA2C7408123A031D75
:10177000C22BB70A37080339031D622C3703FC3923
:10178000B700622C7408183A031D142C370803396B
:10179000031DD52B0108C039C03A031DD22B3F30A1
:1017A0008105622C40308107622C37080339013AE9
:1017B000031DE82B860A0108C039C03A031DE42B3B
:1017C0003F3081058603622C403081078603622CFE
:1017D00037080339023A031DFE2B860A860A0108E0
:1017E000C039C03A031DF92B3F30810586038603BB
:1017F000622C4030810786038603622C3708033948
:10180000033A031D622C033086070108C039C03A31
:10181000031D0F2C3F30810503308602622C4030BF
:10182000810703308602622C7408113A031D622C72
:1018300037080339031D262C0108C039031D232C4A
:10184000C0308104622C40308102622C3708033999
:10185000013A031D382C860A0108C039031D342CB7
:10186000C03081048603622C403081028603622CE2
:1018700037080339023A031D4D2C860A860A0108EF
:10188000C039031D482CC030810486038603622CB6
:101890004030810286038603622C37080339033AFD
:1018A000031D622C033086070108C039031D5D2C1F
:1018B000C030810403308602622C40308102033044
:1018C0008602622CA3010108C039403A031D6A2C2C
:1018D0002314A3140108C039803A031D712C231569
:1018E000A3150108C039C03A031D782C2316A3168E
:1018F000A201860A0108C039403A031D812C221436
:10190000A2140108C039803A031D882C2215A215A3
:101910000108C039C03A031D8F2C2216A216A1015E
:10192000860A0108C039403A031D982C2114A114DD
:101930000108C039803A031D9F2C2115A11501080B
:10194000C039C03A031DA62C2116A116A001860A93
:101950000108C039403A031DAF2C2014A01401081F
:10196000C039803A031DB62C2015A0150108C039D6
:10197000C03A031DBD2C2016A016E02AF424B7019E
:10198000EA2CA001A101A201A3012A15AA15B717EB
:101990007408143A031DD02CB7012A11AA11EA2C9D
:1019A0007408FE39183A031DD62CDA2C7408113A43
:1019B000031DEA2C2A18EA2C2A140130AC00AD01D0
:1019C00074182D14F419AD14AA140E3088001917C8
:1019D0008801EA2C74080F390319F02C0230B80082
:1019E000F40110308A000028103088001F309B005E
:1019F00080309A0014309E0022251E11850165302A
:101A000084001F309B0080309A0024309E0012001A
:101A10009C003F309D0022259A0A0408703A031D5D
:101A2000072DFF309C003F309D009A0A1A081F398D
:101A30001F3A03191D2D2225112D9E1222251E113C
:101A4000880108008B1355309F00AA309F009E1418
:041A50008B170800E8
:1020000037080319062818308A000028BA08031D6B
:10201000DD2BB908031DDD2B6D08013A031D2928AE
:102020003B081B24A3003B08013E1B24A2003B08E5
:10203000023E1B24A1003B08033E1B24A000BB0A58
:102040003B08113C031CBB016F08BA006E08B900C5
:10205000DD2B6D08023A031D3A286C08A0006B08BE
:10206000A1006A08A2006908A3006F08BA006E0800
:10207000B900DD2B6D08033A031D4B283624A00060
:102080003624A1003624A2003624A3006F08BA002B
:102090006E08B900DD2B6D08043A031DC1283B080A
:1020A000031D58286908A000A101A201A301BB28B3
:1020B0003B08013A031D63286A08A0006908A100D3
:1020C000A201A301BB283B08023A031D6E28A00110
:1020D0006A08A1006908A200A301BB283B08033AD3
:1020E000031D7928A001A1016A08A2006908A300C4
:1020F000BB283B08043A031D8328A001A101A201CB
:102100006908A300BB283B08053A031D8D28A001E0
:10211000A101A2016908A300BB283B08063A031DE0
:102120009828A001A1016908A2006A08A300BB28A1
:102130003B08073A031DA328A0016908A1006A080B
:10214000A200A301BB283B08083A031DAE2869087A
:10215000A0006A08A100A201A301BB283B08093A1C
:10216000031DBA286908A000A101A201A301FF3044
:10217000BB00BB28BB01BB0A6F08BA006E08B900E0
:10218000DD2B6D08053A031D5D293B08031DCE2894
:102190003D08A000A101A201A30157293B08013A73
:1021A000031DDA283D081539A0003D08A100A20151
:1021B000A30157293B08023A031DE628A0013D0868
:1021C0001539A1003D08A200A30157293B08033A95
:1021D000031DF228A001A1013D081539A2003D0808
:1021E000A30057293B08043A031D0C29A001A101B3
:1021F000A2013D08A3003D08033A031D02290C304B
:10220000BD000B293D080C3A031D09293030BD00E3
:102210000B290330BD0057293B08053A031D162939
:10222000A001A101A2013D08A30057293B08063ADD
:10223000031D2229A001A1013D08A2003D08153976
:10224000A30057293B08073A031D2E29A0013D088A
:10225000A1003D081539A200A30157293B08083AFF
:10226000031D3A293D08A0003D081539A100A2012F
:10227000A30157293B08093A031D56293D08A00030
:10228000A101A201A301FF30BB003D08033A031DD9
:102290004C290C30BD0055293D080C3A031D53292B
:1022A0003030BD0055290330BD005729BB01BB0AA2
:1022B0006F08BA006E08B900DD2B6D08063A031DE1
:1022C000E9293B08031D6A293D08A000A101A201DC
:1022D000A301E3293B08013A031D76293D0815397E
:1022E000A0003D08A100A201A301E3293B08023A96
:1022F000031D8229A0013D081539A1003D08A20057
:10230000A301E3293B08033A031D8E29A001A10183
:102310003D081539A2003D08A300E3293B08043A13
:10232000031D9829A001A101A2013D08A300E329F2
:102330003B08053A031DA229A001A101A2013D0805
:10234000A300E3293B08063A031DAE29A001A10121
:102350003D08A2003D081539A300E3293B08073AD0
:10236000031DBA29A0013D08A1003D081539A200AE
:10237000A301E3293B08083A031DC6293D08A00034
:102380003D081539A100A201A301E3293B08093A40
:10239000031DE2293D08A000A101A201A301FF3015
:1023A000BB003D08033A031DD8290C30BD00E129CC
:1023B0003D080C3A031DDF293030BD00E129033010
:1023C000BD00E329BB01BB0A6F08BA006E08B90063
:1023D000DD2B6D08073A031D6F2A3D08143C031CD2
:1023E000BD013D081B241539BE00BD0A3D08143C43
:1023F000031CBD013D081B24BF003B08031D062A2A
:102400003F08A000A101A201A301692A3B08013AEB
:10241000031D112A3E08A0003F08A100A201A3014C
:10242000692A3B08023A031D1C2AA0013E08A100AC
:102430003F08A200A301692A3B08033A031D272A8B
:10244000A001A1013E08A2003F08A300692A3B08A1
:10245000043A031D312AA001A101A2013F08A300F3
:10246000692A3B08053A031D3B2AA001A101A201EC
:102470003F08A300692A3B08063A031D462AA0012B
:10248000A1013F08A2003E08A300692A3B08073AC1
:10249000031D512AA0013F08A1003E08A200A3018C
:1024A000692A3B08083A031D5C2A3F08A0003E0841
:1024B000A100A201A301692A3B08093A031D682A69
:1024C0003F08A000A101A201A301FF30BB00692ABF
:1024D000BB01BB0A6F08BA006E08B900DD2B6D089E
:1024E000083A031D942A3B08E123BF00BF1C7E2A43
:1024F0006A08A000A100A200A3008A2A3F1C862A25
:102500006908A000A100A200A3008A2AA001A101DD
:10251000A201A301BB0A3B08333C031CBB016F08AB
:10252000BA006E08B900DD2B6D08093A031DC12AF7
:102530003D08143C031CBD013D081B24BE00BD0A20
:102540003B08E123BF00BF1CAB2A3E08A000A1004E
:10255000A200A300B72A3F1CB32A3E08A000A10096
:10256000A200A300B72AA001A101A201A301BB0AF6
:102570003B08333C031CBB016F08BA006E08B9006E
:10258000DD2B6D080A3A031DDF2ABB0AA0013B1CA4
:10259000CB2A6C08A000A101BB1CD02A6B08A100AB
:1025A000A2013B1DD52A6A08A200A301BB1DDA2A9D
:1025B0006908A3006F08BA006E08B900DD2B6D082A
:1025C0000B3A031D052B3D08143C031CBD013D08BF
:1025D0001B24BE00BD0ABB0AA0013B1CF12A3E0819
:1025E000A000A101BB1CF62A3E08A100A2013B1DD0
:1025F000FB2A3E08A200A301BB1D002B3E08A3003E
:102600006F08BA006E08B900DD2B6D080C3A031D87
:10261000432BBB0AA0013B1C172B3D08143C031C99
:10262000BD013D081B24BE00BD0A3E08A000A1015B
:10263000BB1C242B3D08143C031CBD013D081B247E
:10264000BE00BD0A3E08A100A2013B1D312B3D0882
:10265000143C031CBD013D081B24BE00BD0A3E08FE
:10266000A200A301BB1D3E2B3D08143C031CBD0171
:102670003D081B24BE00BD0A3E08A3006F08BA0037
:102680006E08B900DD2B6D080D3A031D612BBB0AE6
:10269000A001BB1D4D2B6C08A000A1013B1D522BBE
:1026A0006B08A100A201BB1C572B6A08A200A30162
:1026B0003B1C5C2B6908A3006F08BA006E08B900C8
:1026C000DD2B6D080E3A031D872B3D08143C031CBF
:1026D000BD013D081B24BE00BD0ABB0AA001BB1DF5
:1026E000732B3E08A000A1013B1D782B3E08A100E2
:1026F000A201BB1C7D2B3E08A200A3013B1C822B28
:102700003E08A3006F08BA006E08B900DD2B6D0803
:102710000F3A031DC52BBB0AA001BB1D992B3D0819
:10272000143C031CBD013D081B24BE00BD0A3E082D
:10273000A000A1013B1DA62B3D08143C031CBD01BC
:102740003D081B24BE00BD0A3E08A100A201BB1C1F
:10275000B32B3D08143C031CBD013D081B24BE00E7
:10276000BD0A3E08A200A3013B1CC02B3D08143C3F
:10277000031CBD013D081B24BE00BD0A3E08A3008A
:102780006F08BA006E08B900DD2B3B081B24A000BF
:102790003B08013E1B24A1003B08023E1B24A20073
:1027A0003B08033E1B24A300BB0A3B08113C031C4F
:1027B000BB016F08BA006E08B90018308A00002803
:1027C000E02BC000333C031CC00140080B00013467
:1027D000003403340334033400340134003400344F
:1027E0000034013400340134003400340034033444
:1027F0000334033400340134003401340034003431
:102800000034013400340034003400340034003427
:102810000034033403340334003403340334033406
:102820000034003400340134003400340034003407
:10283000003400340034C000143C031CC0014008C4
:102840000B00033407340B340F340E340D340C34C6
:102850001C342C343C343834343430343134323455
:10286000333423341334033407340B3402308800F8
:102870004010201840142019C009201BC009A01BBB
:10288000C009031040180314A30CA20CA10CA00C47
:0628900020088801080089
:103000003708031D4528440803194528C608031D31
:103010004528C508031D4528CA08031D4028470840
:10302000480203181D28C701C4034408031D45288E
:10303000003099200030B02045286808013A031D6F
:10304000242847086D202D286808023A031D2B28E4
:10305000470848202D2847088420C90099200310DC
:10306000C90C0310C90C0310C90C4908B020031087
:10307000C90C0310C90C0310C90C490ACA00C70ABD
:10308000CA036608C6006508C50008308A00002823
:10309000C0001B30C80040081B3C031CC001400896
:1030A0000B00003401340234033404340534063494
:1030B00007340F3417341F3427342F3437343F3458
:1030C0003E343D343C343B343A3439343834303493
:1030D00028342034183410340834C0000D30C800AF
:1030E00040080D3C031CC00140080B0000340134B3
:1030F000023403340434053406340734063405340A
:103100000434033402340134C0000B30C8004008DA
:103110000B3C031CC00140080B0001340234033493
:1031200004340534063407340634053404340334D7
:1031300002340739F1000808F000F108031DA32844
:1031400088011315AD28063088000310F10DF10D2C
:10315000710D633E95008801131170088800080006
:103160000739F1000808F000F108031DBA288801AA
:103170009316C32806308800F10DF10D710D633EE2
:0C31800099008801931270088800080074
:020000040001F9
:02000000FF3FC0
:02000E008C3F25
:02001000FD37BA
:020012009F3F0E
:02001400EF1DDE
:02001600FE3FAB
:00000001FF
